:1000000014C4000043C4000041C400003FC4000009
:100010003DC400003BC4000039C4000037C40000E8
:1000200035C4000033C4000031C400002FC40000F8
:100030002DC400002BC4000029C4000027C4000008
:1000400025C4000023C4000021C400001FC4000018
:100050001DC400001BC4000019C400000C948E0BCA
:1000600015C400000C94670A0C943E0A0FC40000EB
:100070000DC400000BC4000009C4000007C4000048
:1000800005C4000003C4000001C40000FFC3000059
:10009000FDC30000FBC30000F9C300000C94131360
:1000A000F5C30000F3C30000F1C30000EFC300007C
:1000B000EDC30000EBC30000E9C30000E7C300008C
:1000C000E5C30000E3C30000E1C30000DFC300009C
:1000D000DDC30000DBC30000D9C30000D7C30000AC
:1000E000D5C30000CC0ACF0ABE0AC20AC60A060B54
:1000F000D30AD70ADD0AE10AE50AEB0AEF0AF30A96
:10010000060BF90AFD0A010B00002100240027005C
:100110002A002D0030003300010100000401070116
:100120000A0100002200250028002B002E003100CB
:10013000340002010000050108010B01000020004D
:100140002300260029002C002F00320000010000AF
:10015000030106010901050505050705080808084A
:10016000020202020A0A080804040404010101014F
:10017000010101010303030303030303040707074A
:100180000C0C0C0C0C0C0C0C0202020206060606EF
:10019000060606060B0B0B0B0B0B0B0B01021020BC
:1001A00020080810204010204080020102010804AD
:1001B0000201010204081020408080402010080441
:1001C000020180040201804020100804020108049A
:1001D00002010102040810204080010204081020DE
:1001E0004080005EBCE2613FDD83C29C7E20A3FDB7
:1001F0001F419DC3217FFCA2401E5F01E3BD3E6005
:1002000082DC237D9FC1421CFEA0E1BF5D0380DE36
:100210003C62BEE0025CDF81633D7C22C09E1D43E8
:10022000A1FF4618FAA427799BC584DA3866E5BB96
:100230005907DB856739BAE406581947A5FB7826C4
:10024000C49A653BD987045AB8E6A7F91B45C698F6
:100250007A24F8A6441A99C7257B3A6486D85B05A8
:10026000E7B98CD2306EEDB3510F4E10F2AC2F7156
:1002700093CD114FADF3702ECC92D38D6F31B2EC84
:100280000E50AFF1134DCE90722C6D33D18F0C52B6
:10029000B0EE326C8ED0530DEFB1F0AE4C1291CF68
:1002A0002D73CA947628ABF517490856B4EA693716
:1002B000D58B5709EBB536688AD495CB2977F4AA44
:1002C0004816E9B7550B88D6346A2B7597C94A1476
:1002D000F6A8742AC896154BA9F7B6E80A54D78928
:1002E0006B3500000A0B02090C0D0E080703040110
:1002F00000000000000000000000000000000000FE
:1003000000000000000000000000000000001211CA
:1003100010000000000000000000000000000000CD
:10032000000000000000000000000000003E5B4FE5
:100330005B3E3E6B4F6B3E1C3E7C3E1C183C7E3C45
:10034000181C577D571C1C5E7F5E1C00183C180053
:10035000FFE7C3E7FF0018241800FFE7DBE7FF30E3
:10036000483A060E2629792926407F050507407F51
:1003700005253F5A3CE73C5A7F3E1C1C08081C1CC4
:100380003E7F14227F22145F5F005F5F06097F01BA
:100390007F006689956A606060606094A2FFA294A5
:1003A00008047E040810207E201008082A1C080873
:1003B0001C2A08081E101010100C1E0C1E0C3038C1
:1003C0003E3830060E3E0E06000000000000005FC2
:1003D00000000007000700147F147F14242A7F2ADE
:1003E00012231308646236495620500008070300A0
:1003F000001C2241000041221C002A1C7F1C2A08EC
:10040000083E08080080703000080808080800004E
:1004100060600020100804023E5149453E00427FC2
:10042000400072494949462141494D331814127F11
:100430001027454545393C4A4949314121110907B1
:100440003649494936464949291E00001400000032
:100450004034000000081422411414141414004104
:1004600022140802015909063E415D594E7C1211C1
:10047000127C7F494949363E414141227F414141F9
:100480003E7F494949417F090909013E4141517374
:100490007F0808087F00417F41002040413F017FE5
:1004A000081422417F404040407F021C027F7F04AD
:1004B00008107F3E4141413E7F090909063E4151F6
:1004C000215E7F09192946264949493203017F01E6
:1004D000033F4040403F1F2040201F3F4038403FE7
:1004E000631408146303047804036159494D4300FD
:1004F0007F4141410204081020004141417F040234
:1005000001020440404040400003070800205454CA
:1005100078407F28444438384444442838444428A8
:100520007F385454541800087E090218A4A49C78FB
:100530007F0804047800447D40002040403D007F57
:100540001028440000417F40007C047804787C0837
:100550000404783844444438FC182424181824240B
:1005600018FC7C08040408485454542404043F44F0
:10057000243C4040207C1C2040201C3C4030403C1F
:1005800044281028444C9090907C4464544C44007F
:1005900008364100000077000000413608000201E3
:1005A0000204023C2623263C1EA1A161123A4040CF
:1005B000207A38545455592155557941225454784C
:1005C00042215554784020545579400C1E527212E5
:1005D000395555555939545454593955545458006E
:1005E00000457C410002457D420001457C407D1272
:1005F00011127DF0282528F07C54554500205454D4
:100600007C547C0A097F4932494949323A4444447E
:100610003A324A4848303A4141217A3A42402078B9
:10062000009DA0A07D3D4242423D3D4040403D3CBA
:1006300024FF2424487E4943662B2FFC2F2BFF09DF
:1006400029F620C0887E09032054547941000044D3
:100650007D413048484A32384040227A007A0A0ABE
:10066000727D0D19317D2629292F28262929292631
:1006700030484D4020380808080808080808382F76
:1006800010C8ACBA2F102834FA00007B0000081400
:100690002A142222142A14085500550055AA55AAD6
:1006A00055AAFF55FF55FF000000FF00101010FF76
:1006B00000141414FF001010FF00FF1010F010F0D1
:1006C000141414FC001414F700FF0000FF00FF14C2
:1006D00014F404FC141417101F10101F101F14140E
:1006E000141F00101010F0000000001F1010101058
:1006F0001F10101010F010000000FF10101010104C
:1007000010101010FF10000000FF140000FF00FF89
:1007100000001F10170000FC04F414141710171425
:1007200014F404F40000FF00F71414141414141447
:10073000F700F7141414171410101F101F141414BA
:10074000F4141010F010F000001F101F0000001F24
:1007500014000000FC140000F010F01010FF10FF57
:10076000141414FF141010101F00000000F010FFEC
:10077000FFFFFFFFF0F0F0F0F0FFFFFF00000000D0
:1007800000FFFF0F0F0F0F0F3844443844FC4A4A54
:100790004A347E02020606027E027E026355494109
:1007A000633844443C04407E201E2006027E020240
:1007B00099A5E7A5991C2A492A1C4C7201724C3054
:1007C0004A4D4D303048784830BC625A463D3E492B
:1007D0004949007E0101017E2A2A2A2A2A44445FCF
:1007E000444440514A444040444A51400000FF01C3
:1007F00003E080FF000008086B6B083612362436D1
:10080000060F090F06000018180000001010003035
:1008100040FF0101001F01011E00191D1712003CBD
:100820003C3C3C0000000000941911241FBECFEF97
:10083000D1E2DEBFCDBF00E00CBF16E0A0E0B2E029
:10084000E6E8F8E300E00BBF02C007900D92AC3E73
:10085000B107D9F728E0ACEEB6E001C01D92A13691
:10086000B207E1F714E0C5E1D4E000E006C021974B
:100870000109802FFE010E94351CC431D10780E0A0
:100880000807A9F70E94A7150C94411CB9CBCF9279
:10089000DF92EF92FF920F931F93CF93DF936C0140
:1008A0007A018B01C0E0D0E0CE15DF0589F0D801D8
:1008B0006D918D01D601ED91FC910190F081E02DBB
:1008C000C6011995892B11F47E0102C02196ECCF47
:1008D000C701DF91CF911F910F91FF90EF90DF90B3
:1008E000CF9008950E943D1C89E897E06CD121E0EB
:1008F000892B09F420E0822F08956115710579F0A4
:10090000FB0101900020E9F73197AF01461B570B1F
:10091000DC01ED91FC910280F381E02D199480E0DF
:1009200090E008954F925F926F927F92EF92FF92C4
:100930000F931F93CF93DF93CDB7DEB7A1970FB679
:10094000F894DEBF0FBECDBF7C01FA01CB0119A226
:10095000223008F42AE08E010F5D1F4F422E512CE9
:10096000612C712CBF01A30192010E94131CF9019B
:10097000CA01015011096A3014F4605D01C0695C5C
:10098000D8016C93232B242B252B61F7B801C701C9
:10099000B4DFA1960FB6F894DEBF0FBECDBFDF91D6
:1009A000CF911F910F91FF90EF907F906F905F908C
:1009B0004F9008954F925F926F927F928F929F9285
:1009C000AF92BF92CF92DF92EF92FF92CF93DF93DD
:1009D000EC016A017B01B22E9A01AB01C701B6019D
:1009E0000E940F1C882319F068E576E027C02601D5
:1009F0003701E89477F82FEF3FEF4FE75FE7C30148
:100A0000B2010E940F1C81110DC02FEF3FEF4FE785
:100A10005FE7C301B2010E945E1A18161CF46CE570
:100A200076E00CC02FEF3FEF4FE75FE4C701B60160
:100A30000E94A81B181694F460E676E0CE01DF91C0
:100A4000CF91FF90EF90DF90CF90BF90AF909F90AD
:100A50008F907F906F905F904F904FCF2FEF3FEF31
:100A60004FE75FECC701B6010E945E1A87FDE4CF35
:100A700020E030E0A901C701B6010E945E1A87FF9D
:100A80000EC0E881F9810190F081E02D6DE2CE0188
:100A900019954C01F7FAF094F7F8F09402C0812C04
:100AA000912CA12C60E070E080E09FE3AB1441F05A
:100AB00020E030E040E251E40E94621AA394F6CFB5
:100AC0009B01AC01C701B6010E94FA192B013C0140
:100AD0000E94CA1A6B017C010E94F61A9B01AC01AC
:100AE000C301B2010E94F9192B013C012AE0B701B0
:100AF000A601CE0117DF7C01E80CF91CBB2051F0E8
:100B0000E881F9810190F081E02D6EE2CE01199526
:100B1000E80EF91EDB2CDD2021F120E030E040E280
:100B200051E4C301B2010E94AC1B2B013C010E94A5
:100B3000CA1A4B01A12CB12C2AE0B501A401CE01A7
:100B4000F1DEE80EF91EC501B4010E94F61A9B0100
:100B5000AC01C301B2010E94F9192B013C01DA94E6
:100B6000DACFC701DF91CF91FF90EF90DF90CF9068
:100B7000BF90AF909F908F907F906F905F904F90BD
:100B80000895FC01918D828D981761F0828DDF01AF
:100B9000A80FB11D5D968C91928D9F5F9F73928F70
:100BA00090E008958FEF9FEF0895FC01918D828D65
:100BB000981731F0828DE80FF11D858D90E0089532
:100BC0008FEF9FEF0895FC01918D228D892F90E08A
:100BD000805C9F4F821B91098F7399270895FC01B8
:100BE000848DDF01A80FB11DA35ABF4F2C91848DB6
:100BF00090E001968F739927848FA689B7892C93EB
:100C0000A089B1898C9180648C93938D848D981385
:100C100006C00288F389E02D80818F7D808308954E
:100C2000EF92FF920F931F93CF93DF93EC0181E03C
:100C3000888F9B8D8C8D981305C0E889F9898081F8
:100C400085FD23C0F62E0B8D10E00F5F1F4F0F7335
:100C50001127E02E8C8DE8120BC00FB607FCFACFDF
:100C6000E889F989808185FFF5CFCE01B8DFF2CF21
:100C70008B8DFE01E80FF11DE35AFF4FF0820B8FC1
:100C8000EA89FB898081806207C0EE89FF896083E1
:100C9000E889F98980818064808381E090E0DF9138
:100CA000CF911F910F91FF90EF900895CF93DF9315
:100CB000EC01888D8823C1F0EA89FB89808185FD5C
:100CC00005C0A889B9898C9186FD0EC00FB607FCB6
:100CD000F5CF808185FFF2CFA889B9898C9185FFF6
:100CE000EDCFCE017CDFE8CFDF91CF91089580E09A
:100CF00090E0892B19F0F8DD811125C080E090E0AB
:100D0000892B41F080E090E0892B21F00E940000C7
:100D100081111CC080E090E0892B41F080E090E0E0
:100D2000892B21F00E940000811113C080E090E027
:100D3000892BA1F080E090E0892B81F00E940000D7
:100D400081110AC008950E940000D8CF0E940000BF
:100D5000E1CF0E940000EACF0C94000008953FB755
:100D6000F8948091F4069091F506A091F606B09162
:100D7000F70626B5A89B05C02F3F19F00196A11DC7
:100D8000B11D3FBFBA2FA92F982F8827820F911D21
:100D9000A11DB11DBC01CD0142E0660F771F881F68
:100DA000991F4A95D1F708950F931F93CF93DF931F
:100DB000DC0155968C915597823071F0833009F1A2
:100DC000813009F08CC01496ED91FC911597E41BCD
:100DD000F50BE21BF30B20C01496ED91FC911597D7
:100DE000CF01861B970BBC01615071091696ED91DE
:100DF000FC911797CF01841B950BAC01421B530B41
:100E00006EC01696ED91FC911797CF01861B970B3C
:100E1000BC0161507109FA0177FD1BC116968D91D5
:100E20009C911797681779070CF013C1F7FF04C05E
:100E30002E0F3F1FE0E0F0E014968D919C911597E6
:100E4000AF01420F531F841795071CF49C012E1B02
:100E50003F0B121613060CF0FCC0CB0177FD079672
:100E600043E0959587954A95E1F79695982F8827C1
:100E700097958795E80FF91FE050FE4F6770772729
:100E800081E090E001C0880F6A95EAF7482F0130B1
:100E9000110541F088F00230110509F0DAC02E0F7B
:100EA0003F1F15C02E0F3F1FE217F30709F4D1C0F3
:100EB0008081842B8193F8CF80952E0F3F1FE217FE
:100EC000F30709F4C6C0908198239193F8CFE217F5
:100ED000F30709F4BEC0808184278193F8CF77FDA2
:100EE000B8C014968D919C911597681779070CF0EE
:100EF000B0C057FF04C0240F351F40E050E01696E5
:100F00008D919C911797FA01E20FF31F8E179F079F
:100F10001CF49C01241B350B121613060CF099C00F
:100F2000A22F842F86958695869590E8899F600DDF
:100F3000711D1124FB01E050FE4F4770A9F198E0AC
:100F4000941B492F50E0EA01C85FD94F88812917C7
:100F500090F4421B51092FEF30E002C035952795E0
:100F60004A95E2F782230130110541F068F0023022
:100F7000110589F06EC00130110519F42081822B12
:100F80000CC00130110520F480952081822305C01A
:100F90000230110531F4208182278083A91708F4DB
:100FA00058C0A91BE058FF4FA83048F10230110586
:100FB00059F4EF018A2F988190959883C058DF4F9C
:100FC00088508830C0F730C081E00130110509F049
:100FD00080E08195EF019A2F8883C058DF4F9850A9
:100FE0009830D0F788EF8A0F86958695869590E899
:100FF000899FE00DF11D1124E058FF4FA770AA232F
:1010000041F1B0E0A050BA4F8C910130110529F0A8
:1010100038F002301105D1F01CC09081892B18C026
:1010200080959081892314C088EF8A0F86958695D4
:10103000869590E8899FE00DF11D1124E058FF4F3F
:10104000A77039F0B0E0A050BA4F8C9190818927F9
:101050008083DF91CF911F910F9108950F931F937C
:10106000CF93DF93DC01FB0155968C91559782302D
:1010700081F0833019F1813051F514968D919C9156
:101080001597BC01641B750BAB0141505109BF01A1
:1010900081C014966D917C911597CB018E1B9F0B8F
:1010A000FC0116968D919C911797BC01641B750BE2
:1010B000AB0141505109E21BF30B09C016966D912B
:1010C0007C9117976E1B7F0B621B730B63C057FDE0
:1010D0001CC116968D919C911797481759070CF0D3
:1010E00014C1F7FF04C02E0F3F1FE0E0F0E014969C
:1010F0008D919C911597BF01620F731F86179707FB
:101100001CF49C012E1B3F0B121613060CF0FDC0A5
:10111000CA0157FD079663E0959587956A95E1F7B3
:101120009695982F882797958795E80FF91FE05097
:10113000FE4F4770552781E090E001C0880F4A9527
:10114000EAF7482F0130110541F088F0023011050F
:1011500009F0DBC02E0F3F1F15C02E0F3F1FE217F7
:10116000F30709F4D2C08081842B8193F8CF809556
:101170002E0F3F1FE217F30709F4C7C09081982391
:101180009193F8CFE217F30709F4BFC08081842759
:101190008193F8CF57FDB9C014968D919C91159706
:1011A000481759070CF0B1C077FF04C0260F371F4E
:1011B00060E070E016968D919C911797FB01E20F0D
:1011C000F31F8E179F071CF49C01261B370B12166A
:1011D00013060CF09AC0A22F862F869586958695C9
:1011E00090E8899F400D511D1124FA01E050FE4FF7
:1011F0006770A9F198E0961B492F50E0EA01C85F9B
:10120000D94F8881291790F4421B51092FEF30E004
:1012100002C0359527954A95E2F7822301301105E2
:1012200041F068F00230110589F06FC001301105FE
:1012300019F42081822B0CC00130110520F4809517
:101240002081822305C00230110531F420818227DC
:101250008083A91708F459C0A91BE058FF4FA83094
:1012600048F10230110559F4EF018A2F98819095C9
:101270009883C058DF4F88508830C0F731C081E074
:101280000130110509F080E08195EF019A2F8883E4
:10129000C058DF4F98509830D0F788EF8A0F869566
:1012A0008695869560E8869FE00DF11D1124E05833
:1012B000FF4FA770AA2349F1B0E0A050BA4F8C911C
:1012C0000130110529F038F002301105D9F01DC0A8
:1012D0009081892B03C0809590818923808315C0DC
:1012E00088EF8A0F86958695869570E8879FE00D32
:1012F000F11D1124E058FF4FA77039F0B0E0A05065
:10130000BA4F8C9190818927E9CFDF91CF911F91BE
:101310000F910895FC0177FD9AC08085918568172B
:1013200079070CF094C057FD92C0828593854817C9
:1013300059070CF08CC08589823009F07CC084810B
:101340009581DC01A61BB70BBD0161507109868137
:101350009781FC01E41BF50BAF01415051090AC014
:10136000813041F484819581841B950BAB01BC01D4
:10137000615071092130310529F008F12230310521
:10138000E1F10895FA0157FD3796A3E0F595E79549
:10139000AA95E1F7F695FE2FEE27F795E7956E0FE4
:1013A0007F1FFB01E050FE4F4770552781E090E022
:1013B00001C0880F4A95EAF79081892B3AC0FA015B
:1013C00057FD379623E0F595E7952A95E1F7F695D1
:1013D000FE2FEE27F795E7956E0F7F1FFB01E0507C
:1013E000FE4F4770552781E090E001C0880F4A9575
:1013F000EAF78095908189231CC0FA0157FD379642
:1014000083E0F595E7958A95E1F7F695FE2FEE27AF
:10141000F795E7956E0F7F1FFB01E050FE4F477079
:10142000552781E090E001C0880F4A95EAF7908146
:10143000892780830895833009F092CF8681978130
:10144000861B970BBA01AC014150510993CF089507
:101450000895FC016370658B8481958126813781B5
:10146000613039F0633029F0918780873387228794
:101470000895318720879387828708951F920F925E
:101480000FB60F9211240BB60F922F933F934F93E9
:101490005F936F937F938F939F93AF93BF93EF93DC
:1014A000FF9389E897E09BDBFF91EF91BF91AF91AC
:1014B0009F918F917F916F915F914F913F912F916C
:1014C0000F900BBE0F900FBE0F901F9018951F929C
:1014D0000F920FB60F9211240BB60F922F938F938A
:1014E0009F93EF93FF93E0919907F0919A07808182
:1014F000E0919F07F091A00782FD12C0908180913A
:10150000A2078F5F8F732091A307821751F0E0919C
:10151000A207F0E0E757F84F958F8093A20701C02C
:101520008081FF91EF919F918F912F910F900BBE32
:101530000F900FBE0F901F901895362F90E0FC0172
:10154000EE51FD4F4491FC01E456FE4F2491FC0105
:10155000EA5AFE4F9491992309F46BC0442309F48D
:1015600055C050E0FA013197E231F10508F04EC064
:101570008827EE58FF4F8F4F0C94351C80918000C8
:101580008F7707C0809180008F7D03C0809180009D
:10159000877F809380003AC084B58F7702C084B57E
:1015A0008F7D84BD33C08091B0008F7703C0809160
:1015B000B0008F7D8093B00029C0809190008F771C
:1015C00007C0809190008F7D03C080919000877F3D
:1015D000809390001BC08091A0008F7707C08091FE
:1015E000A0008F7D03C08091A000877F8093A00022
:1015F0000DC0809120018F7707C0809120018F7DE1
:1016000003C080912001877F80932001E92FF0E0C3
:10161000EE0FFF1FEE5DFE4FA591B4918FB7F894CA
:10162000EC91311103C020952E2301C02E2B2C9359
:101630008FBF0895CF93DF9390E0FC01E456FE4FF7
:101640002491FC01EA5AFE4F8491882361F190E0D5
:10165000880F991FFC01E85FFE4FC591D491FC01F2
:10166000EE5DFE4FA591B491611109C09FB7F8944A
:101670008881209582238883EC912E230BC06230D1
:1016800061F49FB7F8943881822F809583238883F3
:10169000EC912E2B2C939FBF06C08FB7F894E88156
:1016A0002E2B28838FBFDF91CF9108958F929F9229
:1016B000AF92BF92CF92DF92EF92FF926B017C01CB
:1016C0004EDB4B015C01C114D104E104F104E9F0EB
:1016D00046DBDC01CB0188199909AA09BB09883EC0
:1016E0009340A105B10578F321E0C21AD108E108C1
:1016F000F10888EE880E83E0981EA11CB11CC1146D
:10170000D104E104F10421F7DECFFF90EF90DF90E8
:10171000CF90BF90AF909F908F9008951F920F929F
:101720000FB60F9211242F933F938F939F93AF93F4
:10173000BF938091F0069091F106A091F206B091CE
:10174000F3063091EF0623E0230F2D3720F40196A6
:10175000A11DB11D05C026E8230F0296A11DB11DD4
:101760002093EF068093F0069093F106A093F20683
:10177000B093F3068091F4069091F506A091F606D9
:10178000B091F7060196A11DB11D8093F4069093C8
:10179000F506A093F606B093F706BF91AF919F911F
:1017A0008F913F912F910F900FBE0F901F90189522
:1017B000FC0190810180F281E02DF8948181892BD8
:1017C00081832281892F809528232283A7E0B0E09E
:1017D0001197F1F7218182238183A3E2B0E0119771
:1017E000F1F780817894EFECF0E03197F1F79823EE
:1017F00081E009F480E00895FC0190810180F2818C
:10180000E02D892F809560FF12C0F89422818223F9
:1018100082838181892B8183A3E2B0E01197F1F764
:101820008281982B9283789487ED90E011C0F89490
:101830002281822382838181892B8183AFEFB0E073
:101840001197F1F78281982B928378948FE090E042
:101850000197F1F70895CF92DF92EF92FF920F93E5
:101860001F93CF93DF931F92CDB7DEB76C01E62EA7
:1018700008E010E0FF24F39461E08F2D8E2109F43D
:1018800060E0C6014983B8DFFF0C015011094981AE
:101890000115110589F7411115C0F894D60111966B
:1018A000ED91FC91129791818C9180958923818390
:1018B0001196ED91FC91129792818C9180958923DC
:1018C000828378940F90DF91CF911F910F91FF90B9
:1018D000EF90DF90CF900895CF92DF92EF92FF923A
:1018E0000F931F93CF93DF931F92CDB7DEB78C0179
:1018F000F62E40E065E57983AEDFCF2C7981D72ED7
:10190000760188E0E80EF11CF60161916F0140E07C
:10191000C801A1DFCE14DF04B9F70F90DF91CF919A
:101920001F910F91FF90EF90DF90CF900895FC01F1
:1019300090810180F281E02DF8948181292F2095FA
:101940008223818378948DE743E050E0815021F138
:10195000DA011197F1F730813923C1F3F8948281CC
:10196000822382838181892B81837894ABE7B7E0DE
:101970001197F1F7F894818128232183A3E1B1E045
:101980001197F1F78081982381E009F080E0789445
:10199000E3E6F6E03197F1F708952F923F924F92E8
:1019A0005F926F927F928F929F92AF92BF92CF92EF
:1019B000DF92EF92FF920F931F93CF93DF93CDB7F8
:1019C000DEB76C970FB6F894DEBF0FBECDBF9C8F0D
:1019D0008B8F5B011A011F830E833701C982DC01E3
:1019E00058964D915C9159974115510509F0E5C004
:1019F00018968D919C911997681779070CF0CAC1B8
:101A00001A968D919C911B97281639060CF0C2C12D
:101A10008C2C912CFB0136E0C39EE00DF11D1124AE
:101A2000FB87EA871E161F060CF0B4C1C40133E021
:101A3000880F991F3A95E1F79D878C87820D931D3A
:101A4000181619060CF0A6C157968C91811103C087
:101A5000203B08F02F5FAB8DBC8DED91FC91119771
:101A60000680F781E02DCD012A8F19952A8DB5E0EA
:101A70002B9F90011124F5013596FF87EE87BB82DD
:101A8000AA822501A9014A195B09598B488BC1011A
:101A900008969B8B8A8BE889F989E40DF51DE85D32
:101AA000FC4F9491988761013D822C82A885A0FF0C
:101AB00013C0AB8DBC8DED91FC91B981B13031F487
:101AC0000084F185E02D2E813F8116C00284F385CC
:101AD000E02DEE80FF801AC0EE81FF816E167F063A
:101AE000F1F0AB8DBC8DED91FC91B981B13051F429
:101AF0000084F185E02D9301A601B2018B8D9C8DB0
:101B000019950DC00284F385E02D730184019401C1
:101B10004C815D816A817B818B8D9C8D1995E885D7
:101B2000E695E887FFEFCF1ADF0A2C813D81280D6B
:101B3000391D3D832C834A895B89C416D50609F07B
:101B4000B5CF5FEF451A550A8A819B81880D991D93
:101B50009B838A83AE85BF854A165B0609F09BCFBF
:101B6000EE81FF816E167F0609F4F2C0EB8DFC8DCD
:101B7000A081B181F981F13079F4B5016B5F7F4FBC
:101B80001C96ED91FC911D97830128E030E0A101A6
:101B90008B8D9C8D1995DCC06A857B8568197909C8
:101BA0001A96ED91FC911B9773010C851D8594018C
:101BB000A1018B8D9C8D1995CBC0FA01349694911F
:101BC000329765917491291BCB01B7E02B9F800D53
:101BD000911D1124FA01259134913B8B2A8BFC0134
:101BE000459154915B834A83FC013296C4903196AF
:101BF00054915E87329614913196D49089818230C7
:101C000058F0612E012E000C7708AD2D0D2C000C24
:101C1000BB0BB987A88704C019861886612C712C64
:101C2000AB8DBC8DED91FC9111970680F781E02D75
:101C3000CD011995B9818B2E912C689CC001699CAE
:101C4000900D789C900D1124FC01EA0DFB1DFD8781
:101C5000EC871C82712C612CE12F110FFF0B950179
:101C60002E0F3F1F3B872A87AC0CB11CA5014E0FDE
:101C70005F1F5F8B4E8BC1018D0D911DD7FC9A9517
:101C8000998F888F4E85641608F062C0862D90E08B
:101C900048855985480F591F489D9001499D300D31
:101CA000589D300D1124D901A20DB31DB98BA88BFD
:101CB000AA84BB844C845D84DC80BA85DB1AE88D01
:101CC000F98DE80FF91FFD8BEC8B8D2D8A0D2E8978
:101CD0003F89A216B306B9F1877061F48A819B81AE
:101CE0000196EA89FB89AA81BB81EA0FFB1F7490E8
:101CF0009B838A8377FE20C0AB8DBC8DED91FC91D8
:101D0000B981B13061F40084F185E02D2E813F81ED
:101D10004C895D89B5018B8D9C8D19950DC0028410
:101D2000F385E02DEE80FF80840194014889598974
:101D3000B2018B8D9C8D1995770CEFEFAE1ABE0A10
:101D4000480C591CC2CF3C813C0D3C8363949ACF14
:101D5000AB8DBC8DED91FC9111970288F389E02D3C
:101D6000CD016C960FB6F894DEBF0FBECDBFDF91EC
:101D7000CF911F910F91FF90EF90DF90CF90BF9088
:101D8000AF909F908F907F906F905F904F903F901B
:101D90002F9019946C960FB6F894DEBF0FBECDBF8E
:101DA000DF91CF911F910F91FF90EF90DF90CF9037
:101DB000BF90AF909F908F907F906F905F904F906B
:101DC0003F902F900895AF92BF92CF92EF92FF92E3
:101DD0000F931F93CF93DF93EC01262F888D998D5E
:101DE000009709F03FC06A3059F41D861C862C8983
:101DF0008E859F8538E0239F800D911D112440C062
:101E00006D3009F4A8C08E898823C1F03C898C8587
:101E10009D8546E0349F800D911D1124488559858C
:101E2000481759075CF41D861C868E859F8548E0FF
:101E3000349F800D911D11249F878E87EA88FB882F
:101E4000088919894E855F856C857D85CC88CE0192
:101E5000A4DD2C898C859D8536E0239F800D911D06
:101E6000112442C06A3079F41D861C862C89FC013D
:101E70003696E4918E859F852E9F800D911D1124AD
:101E80009F878E8768C06D3009F465C0FC01349669
:101E90003491631708F45FC03196E491E61708F4B3
:101EA0005AC0FC013296A590B490462F50E0431BD7
:101EB000510937E0349FB001359F700D1124A60EF3
:101EC000B71EF501329634913196E491332311F027
:101ED000E1110DC0F5013496E4912C898C859D8526
:101EE000E29F800D911D11249D878C8734C0F501E0
:101EF000359644915E89552311F16C89E32FF0E00A
:101F0000E40FF11D47FDFA956E9FD0016F9FB00D54
:101F100011244C855D854A0F5B1FE885F985E41720
:101F2000F5076CF41D861C86FC013696E4918E85BF
:101F30009F856E9F800D911D11249F878E87EA8853
:101F4000FB88088919894E855F856C857D85CC88DD
:101F5000CE0123DDBFCF81E090E0DF91CF911F91D3
:101F60000F91FF90EF90CF90BF90AF9008956F9238
:101F70007F928F929F92AF92BF92CF92DF92EF9219
:101F8000FF920F931F93CF93DF93EC014B015A0104
:101F900069013801E881F9810680F781E02D199502
:101FA000E881F9810684F785E02D87019601A50176
:101FB000B401CE011995E881F981A501460D571D9F
:101FC000415051090684F785E02D9601B401CE01F8
:101FD0001995E881F9810484F585E02D9301A50127
:101FE000B401CE011995E881F981C80CD91CB6015C
:101FF000615071090484F585E02D9301A501CE019E
:102000001995E881F9810288F389E02DCE01DF91ED
:10201000CF911F910F91FF90EF90DF90CF90BF90E5
:10202000AF909F908F907F906F901994CF92DF9296
:10203000EF92FF920F931F93CF93DF9300D000D0C6
:10204000CDB7DEB76C01DC01ED91FC91621773072F
:1020500089F4041715072CF4942F852FA801092F54
:10206000182F041B150B98012F5F3F4F008CF18D2B
:10207000E02D12C04017510709F5261737072CF439
:10208000962F872FB901292F382F261B370B2F5F4B
:102090003F4F028CF38DE02D8701C60119952696DE
:1020A0000FB6F894DEBF0FBECDBFDF91CF911F9169
:1020B0000F91FF90EF90DF90CF9008950680F78109
:1020C000E02D2D833E834B835C8369837A8319954E
:1020D000D601ED91FC910088F189E02D2D813E81A2
:1020E0004B815C8169817A81C6011995D601ED9198
:1020F000FC910288F389E02DC60126960FB6F8946C
:10210000DEBF0FBECDBFDF91CF911F910F91FF902A
:10211000EF90DF90CF901994EF92FF920F931F935F
:10212000DC01ED91FC9111971A960D911C911B9772
:1021300018962D913C911997048CF58DE02D7B011B
:1021400040E050E060E070E019951F910F91FF9022
:10215000EF9008954F925F926F927F928F929F922D
:10216000AF92BF92CF92DF92EF92FF920F931F93A5
:10217000CF93DF931F921F92CDB7DEB76C015A0148
:1021800039014801DC01ED91FC910680F781E02DD9
:1021900069837A8319956981462E7A81572E640C5A
:1021A000751CD601ED91FC91461457046CF404841F
:1021B000F585E02D87019401A501B201C6011995AD
:1021C000BFEF4B1A5B0AEDCF0288F389E02DC60101
:1021D0000F900F90DF91CF911F910F91FF90EF9093
:1021E000DF90CF90BF90AF909F908F907F906F9037
:1021F0005F904F901994AF92BF92CF92DF92EF927F
:10220000FF920F931F93CF93DF9300D01F92CDB710
:10221000DEB75C016901DC01ED91FC910680F7817C
:10222000E02D4B835C8369837A831995D501ED9109
:10223000FC9169817A819B012C0D3D1D2150310952
:102240000088F189E02D78014B815C818A01C5010C
:102250001995D501ED91FC910288F389E02DC50116
:102260000F900F900F900F90DF91CF911F910F91D2
:10227000FF90EF90DF90CF90BF90AF901994AF9206
:10228000BF92CF92DF92EF92FF920F931F93CF9363
:10229000DF9300D01F92CDB7DEB75C016901DC018E
:1022A000ED91FC910680F781E02D4B835C8369837F
:1022B0007A831995D501ED91FC914B815C81C40E17
:1022C000D51EB1E0CB1AD1080088F189E02D780144
:1022D000860169817A819B01C5011995D501ED912E
:1022E000FC910288F389E02DC5010F900F900F90AB
:1022F0000F90DF91CF911F910F91FF90EF90DF90A2
:10230000CF90BF90AF9019940895EF92FF920F93E2
:102310001F93DC01ED91FC91048CF58DE02D199556
:102320001F910F91FF90EF9008950F931F93DC0181
:10233000ED91FC91028CF38DE02D19951F910F9179
:1023400008950F931F93DC01ED91FC91008CF18DAA
:10235000E02D19951F910F910895DC01ED91FC91ED
:102360000480F581E02D199408952F923F924F92A9
:102370005F926F927F928F929F92AF92BF92CF9215
:10238000DF92EF92FF920F931F93CF93DF9300D0D2
:10239000CDB7DEB74C017B836A836A01590117010F
:1023A0009801241B350B37FF03C031952195310966
:1023B000C5014A815B81841B950B97FF03C09195F2
:1023C0008195910951E059838217930714F019827E
:1023D0000BC09A2D8B2D5801092F182F9A818B81B4
:1023E000DB82CA82C92ED82E8A819B81A816B906A3
:1023F0005CF49C2D8D2D6801092F182F9A818B81FB
:10240000BB82AA82A92EB82E2501AA81BB814A1AB5
:102410005B0A38016C187D0877FE03C071946194E3
:102420007108720157FE03C0BFEFEB1AFB0AF59467
:10243000E794C016D1061CF00FEF1FEF1FC001E09C
:1024400010E01CC0D401ED91FC91B9810084F185AC
:10245000E02D9101BB23C1F04A815B81B601C4012B
:102460001995E618F708F7FE04C0C00ED11EE40C5B
:10247000F51CEA81FB813196FB83EA834A815B810B
:10248000A416B506FCF604C0A6016A817B81E7CFDD
:102490000F900F900F90DF91CF911F910F91FF90B0
:1024A000EF90DF90CF90BF90AF909F908F907F90F4
:1024B0006F905F904F903F902F90089585ED80939F
:1024C000BC008091BC0084FDFCCF1092650708958C
:1024D00040911A07262F30E0240F311D213231059B
:1024E000DCF4209165072430C9F4FC0180E090E021
:1024F000861758F430911A072191DC01A850B94F82
:10250000A30FB11D2C930196F3CF80911A07680F8A
:1025100060931A0780E0089581E0089582E00895AD
:10252000089581E090E03091ED062091EC0632179D
:1025300010F480E090E09195819591090895809143
:10254000ED069091EC06891730F48F5F8093ED06CD
:1025500080E090E008958FEF9FEF08958091EC0662
:1025600090E02091ED06821B91090895CF92DF92B1
:10257000EF92FF920F931F93CF93DF937C01262F4F
:10258000972F8A0180916607882391F0C62FD72F55
:102590006E01C40ED51ECC15DD0569F06991D70119
:1025A000ED91FC910190F081E02DC7011995F3CFD9
:1025B000642F822F8DDFC801DF91CF911F910F9182
:1025C000FF90EF90DF90CF900895CF93DF931F920D
:1025D000CDB7DEB76983209166072223D1F0209121
:1025E0008807203240F021E030E0FC013383228371
:1025F00080E090E014C080916707E82FF0E0E85990
:10260000F84F998190838F5F809367078093880745
:1026100004C061E0CE0101965BDF81E090E00F90A5
:10262000DF91CF9108951F920F920FB60F92112450
:102630000BB60F922F933F934F935F936F937F93BC
:102640008F939F93AF93BF93EF93FF938091B900C4
:10265000887F803609F49CC068F5883209F45BC035
:1026600090F4803109F454C038F4882309F4F6C09A
:10267000883009F44DC0F5C0883109F44CC080326F
:1026800009F45DC0EEC0803409F468C048F48033BA
:1026900009F455C0883309F0E4C080936307D8C0BB
:1026A000803509F44FC0883509F45DC0883409F0DD
:1026B000D8C0D6C0883909F4C7C0A8F4883709F44F
:1026C00067C038F4883609F463C0803709F460C005
:1026D000C8C0883809F4B8C0803909F45FC08038B0
:1026E00009F0BFC05BC0803B09F486C038F4803A73
:1026F00009F466C0883A09F47FC0B3C0803C09F48D
:10270000A7C0883C09F4A4C0883B09F48AC0A9C0CA
:102710008091400710C090916207809161079817DF
:1027200070F5E091620781E08E0F80936207F0E020
:10273000EF5BF84F80818093BB0085EC86C080936F
:1027400063078EC0E091620781E08E0F809362077D
:102750008091BB00F0E0EF5BF84F808390916207BF
:10276000809161076EC0E091620781E08E0F8093D7
:1027700062078091BB00F0E0EF5BF84F80838091AF
:10278000640781116DC081E080933F0784EA61C0D6
:1027900083E08093650710923E07CFCF80913E077C
:1027A000803208F051C0E0913E0781E08E0F8093A7
:1027B0003E078091BB00F0E0E25EF84F8083BDCF22
:1027C00085EC8093BC001092650780913E078032B3
:1027D00030F4E0913E07F0E0E25EF84F1082609145
:1027E0003E0770E0E0911C07F0911D078EE197E035
:1027F000199510923E0735C084E0809365071092CA
:102800001B0710921A07E0911807F0911907199504
:1028100080911A07811105C081E080931A071092F8
:10282000F806E0911B0781E08E0F80931B07F0E014
:10283000E850F94F80818093BB0090911B078091F5
:102840001A07981708F479CF85E88093BC0009C06F
:1028500085EC8093BC001092650703C0109263075B
:102860002DDEFF91EF91BF91AF919F918F917F915D
:102870006F915F914F913F912F910F900BBE0F90F1
:102880000FBE0F901F9018952091880790916008B7
:10289000213208F04AC0809165078111FCCF32E0F7
:1028A0003093650731E0309364073FEF309363075F
:1028B0001092620720936107A8E6B7E041E457E071
:1028C000FA013E2F341B321718F43D913193F9CFA2
:1028D0001092400720914007990F922B9093400748
:1028E00090913F07913061F410923F07909140071B
:1028F0009093BB009091BC0093FDF8CF95EC01C084
:1029000095EE9093BC00909165079230E1F3909121
:1029100063079F3F79F080916307803241F0809197
:102920006307803331F084E005C081E003C082E0BA
:1029300001C083E010926707109288071092660723
:10294000089590915308992339F08EBD00000DB47D
:1029500007FEFDCF8EB5089528E030E040E8E09115
:102960005608F0915708508190915D0890959523F5
:102970009083E0915408F091550890915C08542F91
:10298000582319F05081952B03C0508190959523C1
:102990009083E0915608F0915708508190915D081E
:1029A000952B9083469521503109C9F60895CF9310
:1029B000DF93BC0189E897E00E947D04EC0167E7A2
:1029C00076E089E897E00E947D048C0F9D1FDF91DF
:1029D000CF910895CF93C82F80914E088F3F51F12A
:1029E000E0915808F0915908808190915E08982BE9
:1029F0009083E0915A08F0915B08208190915F08E4
:102A0000909592239083E0915808F0915908208185
:102A100090915E089095922390838C2F92DFE091A5
:102A20005808F0915908908180915E08892B808325
:102A3000CF91089580914C0891E090936607809320
:102A40006008109267071092880760E086E298E0BD
:102A5000BCDD6C2F86E298E0B8DDCF9115CFEF9208
:102A6000FF920F931F93CF93DF9381E2B3DF80E058
:102A7000B1DF8FE7AFDF82E2ADDF80E0ABDF87E081
:102A8000A9DF80914E088F3F71F1E0915808F091D5
:102A90005908908180915E08892B8083E0915A08C3
:102AA000F0915B08908180915F08892B8083E09191
:102AB0005808F0915908908180915E08809589238B
:102AC0008083C0E0D2E089913CDF86E0C030D80747
:102AD000D1F7E0915808F0915908908180915E08F3
:102AE000892B80832DC0F090B8008CE08093B800D3
:102AF000C0E0D2E0EE24E39480914C08E0926607B7
:102B000080936008109267071092880760E486E25D
:102B100098E05BDD00E010E0FE01E00FF11F608156
:102B200086E298E052DD0F5F1F4F00311105A1F7DB
:102B3000ABDE609686E0C030D807F1F6F092B800C0
:102B4000DF91CF911F910F91FF90EF900895CF9358
:102B5000DF93CDB7DEB7A5970FB6F894DEBF0FBEF3
:102B6000CDBF789484B5826084BD84B5816084BD16
:102B700085B5826085BD85B5816085BD80916E001B
:102B8000816080936E00109281008091810082604C
:102B90008093810080918100816080938100809189
:102BA00080008160809380008091B1008460809378
:102BB000B1008091B00081608093B000809191005D
:102BC0008260809391008091910081608093910058
:102BD000809190008160809390008091A10082603C
:102BE0008093A1008091A10081608093A1008091D9
:102BF000A00081608093A000809121018260809379
:102C00002101809121018160809321018091200127
:102C100081608093200180917A00846080937A00A3
:102C200080917A00826080937A0080917A0081603E
:102C300080937A0080917A00806880937A00109265
:102C4000C1007894E0919907F0919A0792E09083FF
:102C5000E0919507F09196071082E0919707F09127
:102C600098078FEC80831092A107E0919D07F09167
:102C70009E0786E08083E0919B07F0919C0780810E
:102C800080618083E0919B07F0919C078081886040
:102C90008083E0919B07F0919C078081806880830E
:102CA000E0919B07F0919C0780818F7D80839093BA
:102CB0004D088CE380934C0880914E088F3F09F4B7
:102CC000BDC061E0809150080E941A0B61E08091C4
:102CD00052080E941A0B80915208082E000C990B82
:102CE000FC01EA5AFE4FE491F0E0EE0FFF1FEE5DAB
:102CF000FE4F259134913093590820935808FC01D8
:102D0000E456FE4FE491E0935E0880915008082E4F
:102D1000000C990BFC01EA5AFE4FE491F0E0EE0F33
:102D2000FF1FEE5DFE4F2591349130935B08209399
:102D30005A08FC01E456FE4FE491E0935F0880914D
:102D4000530881113EC061E080914E080E941A0B29
:102D500061E080914F080E941A0B80914F08082E65
:102D6000000C990BFC01EA5AFE4FE491F0E0EE0FE3
:102D7000FF1FEE5DFE4F259134913093570820934D
:102D80005608FC01E456FE4FE491E0935D08809103
:102D90004E08082E000C990BFC01EA5AFE4FE491F4
:102DA000F0E0EE0FFF1FEE5DFE4F25913491309362
:102DB000550820935408FC01E456FE4FE491E0933B
:102DC0005C0880915308882309F45FC01FB7F8940A
:102DD0008091EE06811127C0EBE8F1E08491E1EDEE
:102DE000F1E09491E82FF0E0EE0FFF1FE85FFE4F57
:102DF000A591B491EC91E92321F461E085E30E946F
:102E00009D0A61E085E30E941A0B8CB580618CBD40
:102E10008CB580648CBD61E084E30E941A0B61E094
:102E200083E30E941A0B8091EE068F5F8093EE067B
:102E30001FBF80E58CBD81E08DBD27C01092ED06DF
:102E40001092EC061092670710928807109265079F
:102E500081E08093640710923F0761E084E10E9463
:102E60009D0A61E085E10E949D0A8091B9008E7FF4
:102E70008093B9008091B9008D7F8093B90088E478
:102E80008093B80085E48093BC008091510887FD51
:102E90001EC061E00E941A0B61E0809151080E94FF
:102EA0009D0A61E070E080E090E00E94560B60E0D7
:102EB000809151080E949D0A6AE070E080E090E0F5
:102EC0000E94560B61E0809151080E949D0A8EEA93
:102ED00081DD85ED7FDD80E87DDD88EA7BDD8FE3C8
:102EE00079DD83ED77DD80E075DD80E473DD8DE8ED
:102EF00071DD84E16FDD80E26DDD80E06BDD81EA14
:102F000069DD88EC67DD8AED65DD82E163DD81E8FE
:102F100061DD8FEC5FDD89ED5DDD81EF5BDD8BEDEC
:102F200059DD80E457DD84EA55DD86EA53DD8EE223
:102F300051DD8FEA4FDD93DD60ED77E080E090E0DA
:102F40000E94560B80E094E0E0E0F2E0DF019C019B
:102F50001D9221503040E1F7AA24A394B12C8E0198
:102F60000C5F1F4F4E0133E2830E911C7E018FE0F8
:102F7000E80EF11C98E09E0D9CA381E0809346082A
:102F8000B0924508A0924408B0924308A09242082B
:102F900010923F0810923E0810924108109240088B
:102FA00060E089E10E941A0BE5EBF1E0E491E9832E
:102FB000EFE6F1E0E491F0E0EE0FFF1FE45CFE4F7E
:102FC000859194919B838A831C861E861D86DE01D3
:102FD0001C966D01FD011292E017F107E1F7CE0199
:102FE00001960E94970C811110C01C861E861D86BA
:102FF00084E696E0DCDC67E776E089E897E00E940B
:103000007D041C861E861D865BC040E060EFCE01FD
:1030100001960E942B0C66246394512C412C77243A
:103020007394CE0101960E94D80B682FCE010196B1
:103030006DA30E94D80B6DA1613019F48130B9F4F1
:1030400035C0252D30E068131BC08C85781638F408
:10305000F801E20FF31F8081862149F402C078163F
:1030600031F060E0B8E0B71550F07D8608C0F80197
:10307000E50DF11D80818629808361E009C0472C20
:10308000F801E20FF31F9081862D809589238083BC
:10309000CE0101960E94FC0B7394660C19F45394B4
:1030A00066246394E7E0E51508F0BBCFF0E4F7157C
:1030B00008F09BCF4C8641102AC181E08E8727C142
:1030C000D6011E926D01A017B107D1F76AEF70E02B
:1030D00080E090E00E94560B8B8D823269F088323E
:1030E00041F0803161F48AE796E061DC5524539425
:1030F00007C08BE896E002C08CE996E058DC512CC2
:10310000CE0101960E94970CBE01655E7F4FCE01F5
:1031100001960E946C0C41E064E4CE0101960E948D
:103120002B0C68EE73E080E090E00E94560BCE011D
:1031300001960E94970CD82EBE01655E7F4FCE018E
:1031400001960E946C0C40E06EEBCE0101960E944D
:103150002B0C6CEA76E089E897E00E947D044D2D07
:1031600050E060E070E020E189E897E00E9492047E
:1031700066ED76E089E897E00E947D0467013701FB
:1031800039E03E0D3BA328E0222E312C21E0412CDA
:10319000CE0101962DA30E94D80B2DA18111422AA8
:1031A000220F81E0281A310899F7D3014D923D0191
:1031B000442D50E060E070E020E189E897E00E9453
:1031C000920466ED76E089E897E00E947D043BA1D9
:1031D0003611D9CF66EB76E089E897E00E947D044E
:1031E000E0E0BCA1BC1549F0D6014D916D01E4278A
:1031F000F0E0EE51FE4FE491F4CF4E2F50E060E04E
:1032000070E020E189E897E00E94920467E776E0A9
:1032100089E897E00E947D04688970E0762F662730
:103220008F85682B552089F083E0660F771F8A957C
:10323000E1F78E898031A9F42D898CE090E0821B22
:103240009109607F680F791F0CC08B89807611F41B
:10325000687F07C0803211F46C7F03C0803409F4AA
:103260006E7F072E000C880B990BC2D120E030E056
:1032700040E85DE371D22B013C016CEB76E089E81C
:1032800097E00E947D0422E0B301A20189E897E063
:103290000E94DA046DEC76E089E897E00E947D04F4
:1032A00026E636E646EE5FE3C301B20155D220E0E2
:1032B00030E040E052E49ED0AB01BC0122E089E85E
:1032C00097E00E94DA0488ED96E071DB64EE76E028
:1032D00082E398E00E947D0422E0B301A20182E330
:1032E00098E00E94DA04BBDB80E094E0E0E0F2E0EA
:1032F000DF019C011D9221503040E1F764EF71E045
:1033000080E090E00E94560B0E94770636CE8C81BA
:10331000882309F46ACED801FE017B968D918193B2
:10332000E815F905D9F7D8CEE9E8F7E0138212825B
:1033300088EE93E0A0E0B0E084839583A683B78312
:1033400024E136E03183208325EC30E03587248783
:1033500024EC30E03787268720EC30E0318B208B5F
:1033600021EC30E0338B228B22EC30E0358B248B48
:1033700026EC30E0378B268B118E128E138E148E36
:10338000E6E2F8E01382128284839583A683B783F2
:1033900084E296E091838083E2E3F8E01382128274
:1033A00020E830E03583248380E490E097838683AF
:1033B0003187208793878287158A1586148617861A
:1033C000168681E0848B2FEF3FEF338B228B318B7E
:1033D000208B868B178A118E108E84E396E0918362
:1033E00080838FEF848F80A3868F858F84E0878F83
:1033F00008955058BB27AA270ED070C161D130F074
:1034000066D120F031F49F3F11F41EF456C10EF442
:10341000E095E7FB4CC1E92F72D180F3BA17620740
:1034200073078407950718F071F49EF58AC10EF4AE
:10343000E0950B2EBA2FA02D0B01B90190010C01C4
:10344000CA01A0011124FF27591B99F0593F50F4DC
:10345000503E68F11A16F040A22F232F342F442734
:10346000585FF3CF469537952795A795F04053952C
:10347000C9F77EF41F16BA0B620B730B840BBAF0FC
:103480009150A1F0FF0FBB1F661F771F881FC2F767
:103490000EC0BA0F621F731F841F48F4879577957B
:1034A0006795B795F7959E3F08F0B3CF9395880F32
:1034B00008F09927EE0F979587950895D4D008F4D2
:1034C00081E008950CD00AC102D140F0F9D030F06B
:1034D00021F45F3F19F0EBC0511134C1EEC00FD1A0
:1034E00098F39923C9F35523B1F3951B550BBB27CB
:1034F000AA2762177307840738F09F5F5F4F220F78
:10350000331F441FAA1FA9F333D00E2E3AF0E0E870
:1035100030D091505040E695001CCAF729D0FE2FBC
:1035200027D0660F771F881FBB1F2617370748074E
:10353000AB07B0E809F0BB0B802DBF01FF27935804
:103540005F4F2AF09E3F510568F0B1C0FBC05F3F5E
:10355000ECF3983EDCF3869577956795B795F795EC
:103560009F5FC9F7880F911D9695879597F90895E4
:10357000E1E0660F771F881FBB1F62177307840780
:10358000BA0720F0621B730B840BBA0BEE1F88F78F
:10359000E0950895BCD088F09F5790F0B92F9927F7
:1035A000B751A0F0D1F0660F771F881F991F1AF04E
:1035B000BA95C9F712C0B13081F0C3D0B1E0089517
:1035C000C0C0672F782F8827B85F39F0B93FCCF398
:1035D000869577956795B395D9F73EF49095809544
:1035E000709561957F4F8F4F9F4F0895E89409C064
:1035F00097FB3EF490958095709561957F4F8F4F26
:103600009F4F9923A9F0F92F96E9BB279395F6953B
:10361000879577956795B795F111F8CFFAF4BB0FB9
:1036200011F460FF1BC06F5F7F4F8F4F9F4F16C01D
:10363000882311F096E911C0772321F09EE8872FA7
:10364000762F05C0662371F096E8862F70E060E063
:103650002AF09A95660F771F881FDAF7880F9695DC
:10366000879597F90895990F0008550FAA0BE0E880
:10367000FEEF16161706E807F907C0F01216130634
:10368000E407F50798F0621B730B840B950B39F474
:103690000A2661F0232B242B252B21F408950A26DA
:1036A00009F4A140A6958FEF811D811D089597F91A
:1036B0009F6780E870E060E008959FEF80EC0895D8
:1036C00000240A9416161706180609060895002401
:1036D0000A9412161306140605060895092E03947B
:1036E000000C11F4882352F0BB0F40F4BF2B11F4EF
:1036F00060FF04C06F5F7F4F8F4F9F4F089557FD4E
:103700009058440F551F59F05F3F71F04795880F4F
:1037100097FB991F61F09F3F79F0879508951216E6
:1037200013061406551FF2CF4695F1DF08C0161692
:1037300017061806991FF1CF869571056105089443
:103740000895E894BB2766277727CB0197F908955A
:103750008ADF08F48FEF08950BD0C0CFB1DF28F0D7
:10376000B6DF18F0952309F0A2CFA7CF1124EACF36
:10377000C6DFA0F3959FD1F3950F50E0551F629FD0
:10378000F001729FBB27F00DB11D639FAA27F00DBA
:10379000B11DAA1F649F6627B00DA11D661F829FE1
:1037A0002227B00DA11D621F739FB00DA11D621FC6
:1037B000839FA00D611D221F749F3327A00D611DE3
:1037C000231F849F600D211D822F762F6A2F1124C5
:1037D0009F5750408AF0E1F088234AF0EE0FFF1F18
:1037E000BB1F661F771F881F91505040A9F79E3F4F
:1037F000510570F05CCFA6CF5F3FECF3983EDCF351
:10380000869577956795B795F795E7959F5FC1F78B
:10381000FE2B880F911D9695879597F9089523DFC4
:10382000880B990B0895A1E21A2EAA1BBB1BFD0160
:103830000DC0AA1FBB1FEE1FFF1FA217B307E4078F
:10384000F50720F0A21BB30BE40BF50B661F771FE7
:10385000881F991F1A9469F76095709580959095C7
:103860009B01AC01BD01CF010895EE0FFF1F881F22
:103870008BBF0790F691E02D199481E090E0F894C9
:1038800000C0F894FFCF000000000000000000001E
:103890000000000000000000000000000000000028
:1038A0000000000000000000000000000000000018
:1038B0000000000000000000000000000000000008
:1038C0000000000000808080000000000000000078
:1038D000000000000000008080C0C0000000000068
:1038E00000000000000000000000000000000000D8
:1038F00000000000000000000000000000000000C8
:1039000000000000000000000000000000000000B7
:103910000000000000000000000080C0E0F0F8FCA3
:10392000F8E00000000000000000000000000000BF
:103930000000008080808080008080000000008087
:103940008080808000FFFFFF00000000808080807A
:1039500000008080000080FFFF8080008080008069
:103960008080800080800000000000808000008C4B
:103970008E84000080F8F8F880000000000000004D
:10398000000000000000F0F0F0F0F0F0F0F0F0F0D7
:10399000F0F0E0E0C08000E0FCFEFFFFFF7FFFFFF3
:1039A000FFFFFF000000000000000000000000001A
:1039B00000FEFFC70101010183FFFF00007CFEC77D
:1039C0000101010183FFFFFF0038FEC783010101F0
:1039D00083C7FFFF000001FFFF010100FFFF070198
:1039E000010100007FFF80000000FFFF7F0000FF5B
:1039F000FFFF000001FFFFFF0100000000000000CA
:103A0000000000000000030F3F7F7FFFFFFFFFFF6C
:103A1000FFFFE7C7C78F8F9FBFFFFFC3C0F0FFFF48
:103A2000FFFFFFFCFCFCFCFCFCFCFCF8F8F0F0E009
:103A3000C0000103030303030103030000000001AE
:103A40000303030301010301000000010303030357
:103A50000101030300000003030000000303000052
:103A60000000000000010303030303010000000144
:103A7000030100000003030100000000000000003B
:103A800000000000000000000080C0E0F0F9FFFF2F
:103A9000FFFFFF3F1F0F87C7F7FFFF1F1F3DFCF80A
:103AA000F8F8F87C7DFFFFFFFFFFFFFFFF7F3F0F70
:103AB000070030300000000000000000000000009F
:103AC00000000000000000000000FEFEFC000000FE
:103AD00000000000000000000000000000000000E6
:103AE000000000E0C0000000000000000000000036
:103AF0003030000000000000000000000000000066
:103B000000000000000000C0FEFFFFFFFFFFFFFFFE
:103B1000FFFF7F7F3F1F0F071F7FFFFFF8F8FFFFAB
:103B2000FFFFFFFEF8E000000001000000000000C1
:103B30000000FEFE000000FCFEFC0C06060EFCF879
:103B40000000F0F81C0E0606060CFFFFFF0000FE4A
:103B5000FE00000000FCFEFC00183C7E66E6CE8401
:103B6000000006FFFF0606FCFEFC0C060606000031
:103B7000FEFE0000C0F8FC4E4646464E7C784018DB
:103B80003C76E6CECC800000000000000000000083
:103B90000000000000000000000001070F1F1F3F91
:103BA0003F3F3F1F0F030000000000000000000027
:103BB00000000F0F0000000F0F0F000000000F0F9C
:103BC000000003070E0C18180C060F0F0F00000161
:103BD0000F0E0C180C0F070100040E0C180C0F0729
:103BE0000000000F0F00000F0F0F0000000000008A
:103BF0000F0F00000007070C0C181C0C0606000431
:103C00000E0C180C0F070000000000000000000060
:103C100000000000000000000000000000000000A4
:103C20000000000000000000000000000000000094
:103C30000000000000000000000000000000000084
:103C40000000000000000000000000000000000074
:103C50000000000000000000000000000000000064
:103C60000000000000000000000000000000000054
:103C70000000000000000000000000000000000044
:103C8000000000000000000103070F1F3F7F0080BD
:103C9000C0E0F0F8FCFE0000000010064704E30559
:103CA000C105D505560600000000E512B612AE1299
:103CB0009F129112901200000000E30E47048A093F
:103CC000B411AD118511A1119511B5118411290AF5
:103CD000280AD4062E08AA108C101610B70F6E6191
:103CE0006E00696E66006F7666004E6F206D6F72B3
:103CF00065206164647265737365732E000D0A003C
:103D0000202043686970203D2044533138533230BD
:103D100000202043686970203D20445331384232EE
:103D20003000202043686970203D204453313832F0
:103D30003200202044617461203D20002043524322
:103D40003D00202054656D70657261747572652048
:103D50003D20002043656C736975732C200020465C
:103D6000616872656E686569740054656D703A20AB
:103D70000000FFFFFFFFFFFFFFFFFFFFFFFFFFFF51
:103D8000FFFFFFFFFFFFFFFFFFFFFFFFFFFFFFFF43
:103D9000FFFFFFFFFFFFFFFFFFFFFFFFFFFFFFFF33
:103DA000FFFFFFFFFFFFFFFFFFFFFFFFFFFFFFFF23
:103DB000FFFFFFFFFFFFFFFFFFFFFFFFFFFFFFFF13
:103DC000FFFFFFFFFFFFFFFFFFFFFFFFFFFFFFFF03
:103DD000FFFFFFFFFFFFFFFFFFFFFFFFFFFFFFFFF3
:103DE000FFFFFFFFFFFFFFFFFFFFFFFFFFFFFFFFE3
:103DF000FFFFFFFFFFFFFFFFFFFFFFFFFFFFFFFFD3
:103E0000D7011C929ED1A3019201A7D1DD24D394A6
:103E1000D60EF801D58267E776E083E297E00E944C
:103E2000C30ED8014C9150E060E070E02AE083E2DC
:103E300097E00E94D80E6BE776E083E297E00E945D
:103E4000C30EF701408150E060E070E02AE083E2B9
:103E500097E00E94D80E60E876E083E297E00E9447
:103E6000C30E4D2D50E060E070E02AE083E297E061
:103E70000E94D80E6CE576E083E297E00E94C30EC4
:103E80000D5F1F4FF3E0EF0EF11C0815190509F047
:103E90008CCF85E0482E512C612C712C8E010F5F48
:103EA0001F4F7801D70111966C91119770E08C919A
:103EB00001E010E020E130E040E150E090E00E94BD
:103EC0004512B3E0EB0EF11CE814F90459F70E9417
:103ED0000B1368EC70E080E090E00E94FD0FFE01A3
:103EE00036965F018E010F5F1F4F68019E012E5FA6
:103EF0003F4F7901D7016C9170E0F601808100E0BD
:103F000010E020E130E040E150E090E00E944512F6
:103F1000D5019C91F7018081890F808390E02091E9
:103F2000D6073091D70728173907A4F52091D40771
:103F30003091D507032E000C440B550B211531058C
:103F400041055105E1F02C962FAF2C972D963FAFF0
:103F50002D972E964FAF2E972F965FAF2F97F1D0BC
:103F60002C962FAD2C972D963FAD2D972E964FADBD
:103F70002E972F965FAD2F97F0D09B01AC01D60105
:103F80002C93F7011082DDD0A3019201E6D06F5F80
:103F9000D5016C93B3E0EB0EF11CE3E0CE0ED11C27
:103FA000F3E0AF0EB11CC814D90409F0A3CF76CF4B
:103FB000442755274E195F09C6010F8D18A1801B94
:103FC000910B9EA38DA3B4016A197B097EA76DA7EF
:103FD000450159011AAB09ABD8A2CF8EDAAEC9AEF2
:103FE0001AA619A6EECBE3E2F7E01382128288EE5E
:103FF00093E0A0E0B0E084839583A683B78328E1B3
:1040000036E03183208325EC30E03587248724ECAB
:1040100030E03787268720EC30E0318B208B21EC95
:1040200030E0338B228B22EC30E0358B248B26EC76
:1040300030E0378B268B118E128E138E148EE0ECAF
:10404000F7E01382128284839583A683B78388E284
:1040500096E091838083ECECF7E01382128220E8F3
:1040600030E03583248380E490E097838683318732
:10407000208793878287158A158614861786168669
:1040800081E0848B2FEF3FEF338B228B318B208BA2
:10409000868B178A118E108E88E396E09183808339
:1040A0008FEF848F80A3868F858F84E0878F08951C
:1040B0008F929F92AF92BF92CF92DF92EF92FF9238
:1040C000CF93DF93EC01688179818A819B816115AF
:1040D00071058105910521F464E279ED8BE597E0A6
:1040E0002DE133EF41E050E038D049015A019B0106
:1040F000AC01A7EAB1E44DD06B017C01ACEEB4EFAA
:10410000A501940152D0DC01CB018C0D9D1DAE1D8B
:10411000BF1DB7FF03C00197A109B04888839983E9
:10412000AA83BB83BC01CD019F77DF91CF91FF9024
:10413000EF90DF90CF90BF90AF909F908F900895B9
:10414000B7CF80E096E0B4CF60930006709301068D
:1041500080930206909303060895052E97FB16F4AC
:1041600000940FD057FD05D024D007FC02D046F4B0
:1041700008C050954095309521953F4F4F4F5F4F68
:10418000089590958095709561957F4F8F4F9F4FC3
:10419000089531D0A59F900DB49F900DA49F800DE0
:1041A000911D11240895B7FFF4CFF3DF821B930B09
:1041B0000895A1E21A2EAA1BBB1BFD010DC0AA1F68
:1041C000BB1FEE1FFF1FA217B307E407F50720F080
:1041D000A21BB30BE40BF50B661F771F881F991FFB
:1041E0001A9469F760957095809590959B01AC0144
:1041F000BD01CF010895A29FB001B39FC001A39F4D
:10420000700D811D1124911DB29F700D811D11240F
:10421000911D0895991B79E004C0991F961708F025
:10422000961B881F7A95C9F780950895EE0FFF1F9A
:10423000881F8BBF0790F691E02D199481E090E0E4
:10424000F89400C0F894FFCF0000000000000000C8
:10425000000000000000000000000000000000005E
:10426000000000000000000000000000000000004E
:10427000000000000000000000000000000000003E
:1042800000000000000000808080000000000000AE
:104290000000000000000000008080C0C00000009E
:1042A000000000000000000000000000000000000E
:1042B00000000000000000000000000000000000FE
:1042C00000000000000000000000000000000000EE
:1042D00000000000000000000000000080C0E0F0CE
:1042E000F8FCF8E000000000000000000000000002
:1042F000000000000080808080800080800000003E
:1043000000808080808000FFFFFF00000000808030
:10431000808000008080000080FFFF80800080801F
:10432000008080808000808000000000008080008D
:10433000008C8E84000080F8F8F8800000000000F7
:104340000000000000000000F0F0F0F0F0F0F0F0ED
:10435000F0F0F0F0E0E0C08000E0FCFEFFFFFF7F47
:10436000FFFFFFFFFF000000000000000000000052
:10437000000000FEFFC70101010183FFFF00007C78
:10438000FEC70101010183FFFFFF0038FEC7830163
:10439000010183C7FFFF000001FFFF010100FFFFD4
:1043A0000701010100007FFF80000000FFFF7F0088
:1043B00000FFFFFF000001FFFFFF01000000000001
:1043C0000000000000000000030F3F7F7FFFFFFFA1
:1043D000FFFFFFFFE7C7C78F8F9FBFFFFFC3C0F07F
:1043E000FFFFFFFFFFFCFCFCFCFCFCFCFCF8F8F012
:1043F000F0E0C00001030303030301030300000016
:104400000001030303030101030100000001030392
:104410000303010103030000000303000000030382
:10442000000000000000000103030303030100007B
:104430000001030100000003030100000000000070
:10444000000000000000000000000080C0E0F0F963
:10445000FFFFFFFFFF3F1F0F87C7F7FFFF1F1F3D36
:10446000FCF8F8F8F87C7DFFFFFFFFFFFFFFFF7F00
:104470003F0F070030300000000000000000000087
:10448000000000000000000000000000FEFEFC0034
:10449000000000000000000000000000000000001C
:1044A0000000000000E0C00000000000000000006C
:1044B000000030300000000000000000000000009C
:1044C000000000000000000000C0FEFFFFFFFFFF33
:1044D000FFFFFFFF7F7F3F1F0F071F7FFFFFF8F8E2
:1044E000FFFFFFFFFFFEF8E00000000100000000FA
:1044F00000000000FEFE000000FCFEFC0C06060EA4
:10450000FCF80000F0F81C0E0606060CFFFFFF008A
:1045100000FEFE00000000FCFEFC00183C7E66E68B
:10452000CE84000006FFFF0606FCFEFC0C06060615
:104530000000FEFE0000C0F8FC4E4646464E7C7869
:1045400040183C76E6CECC80000000000000000061
:1045500000000000000000000000000001070F1F25
:104560001F3F3F3F3F1F0F030000000000000000FF
:10457000000000000F0F0000000F0F0F00000000F0
:104580000F0F000003070E0C18180C060F0F0F007A
:1045900000010F0E0C180C0F070100040E0C180C74
:1045A0000F070000000F0F00000F0F0F00000000AA
:1045B00000000F0F00000007070C0C181C0C06066B
:1045C00000040E0C180C0F07000000000000000093
:1045D00000000000000000000000000000000000DB
:1045E00000000000000000000000000000000000CB
:1045F00000000000000000000000000000000000BB
:1046000000000000000000000000000000000000AA
:10461000000000000000000000000000000000009A
:10462000000000000000000000000000000000008A
:10463000000000000000000000000000000000007A
:10464000000000000000000001000000000103075E
:104650000F1F3F7F0080C0E0F0F8FCFE000000006C
:104660004D04CA031704F503090493040000000075
:10467000930E640E5C0E4D0E3F0E3E0E00000000C9
:10468000910ACA03C707620D5B0D330D4F0D430D31
:10469000630D320D6608650811056B06580C3A0C5F
:1046A000C40B650B0D0A007363726F6C6C00486578
:1046B0006C6C6F2C20776F726C64210030780078FE
:1046C0003A200020793A20002064793A2000FFFF48
:1046D000FFFFFFFFFFFFFFFFFFFFFFFFFFFFFFFFEA
:1046E000FFFFFFFFFFFFFFFFFFFFFFFFFFFFFFFFDA
:1046F000FFFFFFFFFFFFFFFFFFFFFFFFFFFFFFFFCA
:10470000FFFFFFFFFFFFFFFFFFFFFFFFFFFFFFFFB9
:020000023000CC
:10E000000D94F6F20D941FF30D941FF30D941FF36E
:10E010000D941FF30D941FF30D941FF30D941FF334
:10E020000D941FF30D941FF30D941FF30D941FF324
:10E030000D941FF30D941FF30D941FF30D941FF314
:10E040000D941FF30D941FF30D941FF30D941FF304
:10E050000D941FF30D941FF30D941FF30D941FF3F4
:10E060000D941FF30D941FF30D941FF30D941FF3E4
:10E070000D941FF30D941FF30D941FF30D941FF3D4
:10E080000D941FF30D941FF30D941FF30D941FF3C4
:10E090000D941FF30D941FF30D941FF30D941FF3B4
:10E0A0000D941FF30D941FF30D941FF30D941FF3A4
:10E0B0000D941FF30D941FF30D941FF30D941FF394
:10E0C0000D941FF30D941FF30D941FF30D941FF384
:10E0D0000D941FF30D941FF30D941FF30D941FF374
:10E0E0000D941FF341546D65676132353630004140
:10E0F000726475696E6F206578706C6F72657220DE
:10E1000073746B3530305632206279204D4C530099
:10E11000426F6F746C6F616465723E004875683F52
:10E1200000436F6D70696C6564206F6E20203D2028
:10E1300000435055205479706520202020203D2038
:10E14000005F5F4156525F415243485F5F203D2070
:10E1500000415652204C69624320566572203D2092
:10E16000004743432056657273696F6E20203D203F
:10E1700000435055207369676E61747572653D2068
:10E18000004C6F77206675736520202020203D208D
:10E1900000486967682066757365202020203D204F
:10E1A00000457874206675736520202020203D206E
:10E1B000004C6F636B2066757365202020203D2026
:10E1C00000536570202039203230313000312E3636
:10E1D0002E3700342E332E33005623202020414486
:10E1E00044522020206F7020636F6465202020201F
:10E1F00020696E737472756374696F6E20616464F4
:10E2000072202020496E74657272757074006E6F92
:10E2100020766563746F7200726A6D702020006AE8
:10E220006D7020005768617420706F72743A0050EE
:10E230006F7274206E6F7420737570706F72746576
:10E2400064004D7573742062652061206C65747480
:10E2500065720020005772697474696E67204545C5
:10E260000052656164696E6720454500656570729E
:10E270006F6D206572726F7220636F756E743D00F2
:10E28000504F525400303D5A65726F206164647281
:10E290006573732063747273003F3D435055207360
:10E2A0007461747300403D454550524F4D20746574
:10E2B000737400423D426C696E6B204C45440045CE
:10E2C0003D44756D7020454550524F4D00463D44CC
:10E2D000756D7020464C41534800483D48656C7050
:10E2E000004C3D4C69737420492F4F20506F72745D
:10E2F0007300513D517569742026206A756D702038
:10E30000746F20757365722070676D00523D44759F
:10E310006D702052414D00563D73686F7720696ED5
:10E320007465727275707420566563746F727300D1
:10E33000593D506F727420626C696E6B002A0052F6
:10E340004553455400494E543000494E543100491C
:10E350004E543200494E543300494E543400494E15
:10E36000543500494E543600494E54370050434905
:10E370004E5430005043494E5431005043494E549E
:10E3800032005744540054494D45523020434F4DBC
:10E3900050410054494D45523020434F4D504200AA
:10E3A00054494D455230204F56460054494D455230
:10E3B0003120434150540054494D45523120434F80
:10E3C0004D50410054494D45523120434F4D50422C
:10E3D0000054494D45523120434F4D50430054495C
:10E3E0004D455231204F56460054494D455232203A
:10E3F000434F4D50410054494D45523220434F4DFB
:10E4000050420054494D455232204F56460054491F
:10E410004D45523320434150540054494D455233E9
:10E4200020434F4D50410054494D45523320434FF6
:10E430004D50420054494D45523320434F4D5043B7
:10E440000054494D455233204F56460054494D45DE
:10E45000523420434150540054494D4552342043D6
:10E460004F4D50410054494D45523420434F4D507B
:10E47000420054494D45523420434F4D50430054BF
:10E48000494D455234204F56460054494D4552356A
:10E4900020434150540054494D45523520434F4D7F
:10E4A00050410054494D45523520434F4D50420094
:10E4B00054494D45523520434F4D50430054494D2A
:10E4C000455235204F564600555341525430205244
:10E4D000580055534152543020554452450055532D
:10E4E0004152543020545800555341525431205217
:10E4F000580055534152543120554452450055530C
:10E5000041525431205458005553415254322052F4
:10E5100058005553415254322055445245005553EA
:10E5200041525432205458005553415254332052D2
:10E5300058005553415254332055445245005553C9
:10E5400041525433205458005350492053544300EF
:10E5500041444300414E414C4F4720434F4D5000F2
:10E560004545205245414459005457490053504DA8
:10E57000205245414459002A003FE345E34AE34F16
:10E58000E354E359E35EE363E368E36DE374E37B41
:10E59000E382E3E9E3F6E303E4ABE3B7E3C4E3D107
:10E5A000E3DEE386E393E3A0E348E5C8E4D2E4DEF8
:10E5B000E454E550E560E50EE41AE427E434E44170
:10E5C000E4E8E4F2E4FEE469E56DE54CE458E46572
:10E5D000E472E47FE48AE496E4A3E4B0E4BDE408F2
:10E5E000E512E51EE528E532E53EE50011241FBEF3
:10E5F000CFEFD1E2DEBFCDBF01E00CBF12E0A0E063
:10E60000B2E0EAEDFFEF03E00BBF02C007900D920E
:10E61000A030B107D9F712E0A0E0B2E001C01D922E
:10E62000AC30B107E1F70F94FBF40D94EBFF01E27E
:10E630000EBF0FEF0DBF11241FBE0D94FBF40D9400
:10E6400000F020E030E040ED57E005C0FA013197DE
:10E65000F1F72F5F3F4F28173907C0F308959C014A
:10E66000442737FD4095542FDA01C901860F911DCB
:10E67000A11DB11DABBFFC018791882369F0809378
:10E68000C6008091C00086FFFCCF8091C0008064EE
:10E690008093C0006F5FE8CF08958DE08093C6003F
:10E6A0008091C00086FFFCCF8091C0008064809381
:10E6B000C0008AE08093C6008091C00086FFFCCF36
:10E6C0008091C00080648093C00008950F942FF360
:10E6D0000F944DF30895FC019081992359F0909384
:10E6E000C6008091C00086FFFCCF8091C00080648E
:10E6F0008093C0003196992379F70895282F982F99
:10E7000092959F70892F805D8A3308F0895F80938E
:10E71000C6008091C00086FFFCCF8091C00080645D
:10E720008093C000822F8F70982F905D9A3308F0ED
:10E73000995F9093C6008091C00086FFFCCF8091C6
:10E74000C00080648093C00008959C01FB01853661
:10E7500091051CF46330710594F0C90164E670E022
:10E760000F948CFF605D7F4F6093C6008091C00066
:10E7700086FFFCCF8091C00080648093C0002B3066
:10E78000310514F43297B4F0C90164E670E00F94D7
:10E790008CFF6AE070E00F948CFF605D7F4F6093A8
:10E7A000C6008091C00086FFFCCF8091C0008064CD
:10E7B0008093C000C9016AE070E00F948CFFC0969E
:10E7C0008093C6008091C00086FFFCCF8091C0007E
:10E7D00080648093C0000895282F277020642093C0
:10E7E0007C0020917B0086958695869590E08170CF
:10E7F000907033E0880F991F3A95E1F7277F282B17
:10E8000020937B0080917A00806480937A008091CD
:10E810007A0086FDFCCF2091780040917900942FFA
:10E8200080E030E0282B392BC90108951F93182F61
:10E8300080E892EE60E00F942FF31093C600809171
:10E84000C00086FFFCCF8091C00080648093C00030
:10E850000F944DF31F9108952F923F924F925F9224
:10E860006F927F928F929F92AF92BF92CF92DF92E0
:10E87000EF92FF920F931F93DF93CF93CDB7DEB745
:10E8800062970FB6F894DEBF0FBECDBF382E622E52
:10E89000CA01DB015C016D01772460E2262E2E01A6
:10E8A0000894411C511C8BC081E0A81680E0B8067A
:10E8B00081E0C80680E0D80628F0C601AA27BB2759
:10E8C0000F947EF3BB27AD2D9C2D8B2D0F947EF3E3
:10E8D0008A2D0F947EF32092C6008091C00086FF9F
:10E8E000FCCF8091C00080648093C0009DE2909333
:10E8F000C6008091C00086FFFCCF8091C00080647C
:10E900008093C0002092C6008091C00086FFFCCF9B
:10E910008091C00080648093C000198286017501D7
:10E9200088249924A1E03A1651F03A1620F0B2E07A
:10E930003B1661F409C00BBFF701779007C0C70110
:10E940000F94D5FF782E02C0F7017080872D0F94A9
:10E950007EF32092C6008091C00086FFFCCF80919C
:10E96000C00080648093C000872D8052F401EF7056
:10E97000F0708F3520F4E40DF51D708204C0E40DB5
:10E98000F51D8EE280830894E11CF11C011D111D10
:10E990000894811C911C90E18916910409F0C2CF62
:10E9A00080E190E0A0E0B0E0A80EB91ECA1EDB1E18
:10E9B000198AC2010F946BF30F944DF36A94662089
:10E9C00009F072CF62960FB6F894DEBF0FBECDBFCE
:10E9D000CF91DF911F910F91FF90EF90DF90CF903B
:10E9E000BF90AF909F908F907F906F905F904F906F
:10E9F0003F902F9008952F923F924F925F926F9287
:10EA00007F928F929F92AF92BF92CF92DF92EF92BE
:10EA1000FF920F931F93DF93CF93CDB7DEB7CD5304
:10EA2000D1400FB6F894DEBF0FBECDBF279A2F9A04
:10EA30008091C00082608093C00080E18093C40018
:10EA400088E18093C1000000EE24FF248701B4E038
:10EA5000AB2EB12CCC24DD2424C0C5010197F1F7E5
:10EA60000894E11CF11C011D111D21E2E2162EE4A7
:10EA7000F20620E0020720E0120718F0A1E0CA2EFB
:10EA8000D12CC801B70128E53BE140E050E00F94EC
:10EA90009FFF611571058105910519F485B18058B5
:10EAA00085B98091C00087FD03C0C114D104A9F2CB
:10EAB000A6014F5F5F4FC25EDE4F59834883CE5140
:10EAC000D140C25EDE4F68817981CE51D140613044
:10EAD000710511F00D946EFFC05DDE4F1982188232
:10EAE000C053D14060E0C15DDE4F1882CF52D140AB
:10EAF000AA24BB24C05EDE4F188219821A821B82B0
:10EB0000C052D140CE5CDE4F188219821A821B821D
:10EB1000C253D14080E090E0A0E0B0E0ABBFFC0188
:10EB2000A791B691C45CDE4FB983A883CC53D14082
:10EB30000D9469FFC25EDE4FE881F981CE51D1406C
:10EB4000319709F52091C600C25EDE4F1982188206
:10EB5000CE51D14022C02F5F3F4F4F4F5F4F2130EA
:10EB6000F2E13F07FAE74F07F0E05F0780F0C45C8F
:10EB7000DE4F08811981CC53D1400F5F1F4F19F030
:10EB8000EE27FF27099420E030E040E050E080913C
:10EB9000C00087FFE0CF2091C600213209F094C663
:10EBA0000894A11CB11C33E0A316B10409F08EC671
:10EBB00000E010E018C041E24093C6008091C00020
:10EBC00086FFFCCF8091C00080648093C0002F5FDF
:10EBD0003F4F2931310579F70F944DF30F5F1F4FE8
:10EBE0000530110519F020E030E0E5CF1092080261
:10EBF0001092090210920A0210920B021092040263
:10EC00001092050210920602109207021092000262
:10EC10001092010210920202109203028FEE90EE07
:10EC200060E00F9466F380E191EE60E00F942FF3C3
:10EC30008091C00087FFFCCF9091C600903608F00D
:10EC40009F759032B8F09093C6008091C00086FF07
:10EC5000FCCF8091C00080648093C00080E28093EC
:10EC6000C6008091C00086FFFCCF8091C000806408
:10EC70008093C000983409F4DBC19934B8F492341D
:10EC800009F45DC1933458F4903319F1903308F4CA
:10EC900018C69F33A1F1903409F013C6BDC0953456
:10ECA00009F474C1963409F00CC69CC1923509F47C
:10ECB0002FC2933538F49C3409F4F9C1913509F029
:10ECC00000C61CC2963509F449C2993509F0F9C548
:10ECD0009CC485E892EE62E00F9466F31092040201
:10ECE000109205021092060210920702109208027A
:10ECF0001092090210920A0210920B0217C189E9C0
:10ED000092EE62E00F9466F38FEE90EE60E00F9467
:10ED100066F381E291EE60E00F942FF381EC91EEC7
:10ED200060E00F9466F381E391EE60E00F942FF3BF
:10ED300084EE90EE60E00F9466F381E491EE60E083
:10ED40000F942FF386E090E061E070E00F94A5F35C
:10ED50000F944DF381E691EE60E00F942FF383ED75
:10ED600091EE60E00F9466F381E591EE60E00F9420
:10ED70002FF38DEC91EE60E00F9466F381E791EE56
:10ED800060E00F942FF38EE10F947EF388E90F94E7
:10ED90007EF381E00F947EF30F944DF381E891EEC2
:10EDA00060E00F942FF319E0E0E0F0E010935700DB
:10EDB000E4918E2F0F947EF30F944DF381E991EE41
:10EDC00060E00F942FF3E3E0F0E010935700E4913C
:10EDD0008E2F0F947EF30F944DF381EA91EE60E055
:10EDE0000F942FF3E2E0F0E010935700E4918E2FA0
:10EDF0000F947EF30F944DF381EB91EE60E00F944E
:10EE00002FF3E1E0F0E0109357001491812F0F945D
:10EE10007EF30F944DF307CF85EA92EE62E00F94F4
:10EE200066F385E592EE60E00F9466F30F944DF380
:10EE300000E010E019C0C8016F2D0F94DDFFFF2026
:10EE400031F483E592EE60E00F942FF30BC0F09263
:10EE5000C6008091C00086FFFCCF8091C000806416
:10EE60008093C0000F5F1F4FC80181519F41AA27A7
:10EE700097FDA095BA2FABBFFC01F7905AE2F516AB
:10EE800021F062E000301607B1F60F944DF30F94B5
:10EE90004DF381E692EE60E00F9466F30F944DF32C
:10EEA000CC24DD2400E010E01EC0C8010F94D5FF83
:10EEB000F82E882331F483E592EE60E00F942FF36F
:10EEC0000BC08093C6008091C00086FFFCCF80916C
:10EED000C00080648093C000FE1419F00894C11C27
:10EEE000D11C0F5F1F4FC80181519F41AA2797FD79
:10EEF000A095BA2FABBFFC01E7907AE2E71621F0AC
:10EF000082E00030180789F60F944DF30F944DF30B
:10EF10008CE692EE60E00F942FF3C60161E070E0A2
:10EF20000F94A5F30F944DF30F944DF3109200023C
:10EF300010920102109202021092030274CE83EB2F
:10EF400092EE62E00F9466F3279A2F9A16C02F98DC
:10EF500080E090E0E0EDF7E03197F1F7019684363C
:10EF60009105C1F72F9A80E090E0E0EDF7E031974E
:10EF7000F1F7019684369105C1F78091C00087FFB3
:10EF8000E6CF8091C00087FFFCCF95C48FEB92EE57
:10EF900062E00F9466F3409100025091010260918B
:10EFA00002027091030281E020E10F942CF4809121
:10EFB000000290910102A0910202B09103028050E0
:10EFC0009F4FAF4FBF4F8093000290930102A093D9
:10EFD0000202B093030280509041A040B04008F478
:10EFE00022CEA4CF8DEC92EE62E00F9466F34091B6
:10EFF000040250910502609106027091070280E0C0
:10F0000020E10F942CF48091040290910502A091CC
:10F010000602B091070280509F4FAF4FBF4F8093C1
:10F02000040290930502A0930602B0930702FBCD61
:10F030008AED92EE62E00F9466F385E892EE60E06E
:10F040000F9466F389E992EE60E00F9466F385EA27
:10F0500092EE60E00F9466F383EB92EE60E00F9423
:10F0600066F38FEB92EE60E00F9466F38DEC92EE18
:10F0700060E00F9466F38AED92EE60E00F9466F321
:10F0800081EE92EE60E00F9466F382EF92EE60E024
:10F090000F9466F38CE093EE60E00F9466F387E1E3
:10F0A00093EE60E00F9466F380E393EEB9CD81EECA
:10F0B00092EE62E00F9466F381E40F9416F482E41A
:10F0C0000F9416F483E40F9416F484E40F9416F46A
:10F0D00085E40F9416F486E40F9416F487E40F94F5
:10F0E00016F488E40F9416F48AE40F9416F48BE473
:10F0F0000F9416F48CE40F9416F495CD82EF92EEF3
:10F1000062E00F9466F399249394AA24BB2445C427
:10F110008CE093EE62E00F9466F340910802509108
:10F12000090260910A0270910B0282E020E10F94C3
:10F130002CF48091080290910902A0910A02B091EA
:10F140000B0280509F4FAF4FBF4F809308029093A8
:10F150000902A0930A02B0930B0265CD87E193EEFA
:10F1600062E00F9466F384EE90EE60E00F9466F335
:10F1700089ED91EE60E00F9466F309E715EECC5D42
:10F18000DE4F19830883C452D1406624772443019B
:10F19000CA5DDE4F19821882C652D140A401930184
:10F1A0005695479537952795C85DDE4F2883398357
:10F1B0004A835B83C852D140CA5DDE4F4881598182
:10F1C000C652D1404F5F5F4FCA5DDE4F59834883BF
:10F1D000C652D140CA0162E070E00F94A5F350E23C
:10F1E0005093C6008091C00086FFFCCF8091C00084
:10F1F00080648093C0006DE26093C6008091C0007F
:10F2000086FFFCCF8091C00080648093C00070E2D4
:10F210007093C6008091C00086FFFCCF8091C00033
:10F2200080648093C000C85DDE4FE880F9800A8169
:10F230001B81C852D140BB27A12F902F8F2D0F9437
:10F240007EF3C85DDE4F8881C852D1400F947EF3B3
:10F2500070E2F72EF092C6008091C00086FFFCCFCE
:10F260008091C00080648093C0000DE30093C600CD
:10F270008091C00086FFFCCF8091C00080648093A5
:10F28000C00010E21093C6008091C00086FFFCCF42
:10F290008091C00080648093C0008BBEF3012791F1
:10F2A000C45DDE4F2883CC52D140A22EBB24CC2497
:10F2B000DD240894611C711C811C911C8BBEF30120
:10F2C0008791282E332444245524142D032DF22C09
:10F2D000EE24EA0CFB1C0C1D1D1D0894611C711C06
:10F2E000811C911C8BBEF3013791C35DDE4F3883C7
:10F2F000CD52D1400894611C711C811C911C8BBEA5
:10F30000F3014791C25DDE4F4883CE52D1402DEFCD
:10F310003FEF4FEF5FEF620E731E841E951E0F943A
:10F320007EF330E23093C6008091C00086FFFCCFB0
:10F330008091C00080648093C000C45DDE4F8881EE
:10F34000CC52D1400F947EF340E24093C6008091AE
:10F35000C00086FFFCCF8091C00080648093C00015
:10F36000C25DDE4F8881CE52D1400F947EF350E2D1
:10F370005093C6008091C00086FFFCCF8091C000F2
:10F3800080648093C000C35DDE4F8881CD52D14040
:10F390000F947EF360E26093C6008091C00086FF08
:10F3A000FCCF8091C00080648093C0007FEFE7169F
:10F3B0007FEFF70670E0070770E0170731F48EE083
:10F3C00092EE60E00F942FF3DFC0D801C701807088
